{
  "_format": "hh-sol-artifact-1",
  "contractName": "UtilityGateway",
  "sourceName": "contracts/UtilityGateway.sol",
  "abi": [
    {
      "inputs": [
        {
          "internalType": "address",
          "name": "_operator",
          "type": "address"
        }
      ],
      "stateMutability": "nonpayable",
      "type": "constructor"
    },
    {
      "anonymous": false,
      "inputs": [
        {
          "indexed": true,
          "internalType": "address",
          "name": "oldOperator",
          "type": "address"
        },
        {
          "indexed": true,
          "internalType": "address",
          "name": "newOperator",
          "type": "address"
        }
      ],
      "name": "OperatorUpdated",
      "type": "event"
    },
    {
      "anonymous": false,
      "inputs": [
        {
          "indexed": true,
          "internalType": "uint256",
          "name": "orderId",
          "type": "uint256"
        },
        {
          "indexed": false,
          "internalType": "string",
          "name": "reason",
          "type": "string"
        },
        {
          "indexed": false,
          "internalType": "uint256",
          "name": "timestamp",
          "type": "uint256"
        }
      ],
      "name": "OrderFailed",
      "type": "event"
    },
    {
      "anonymous": false,
      "inputs": [
        {
          "indexed": true,
          "internalType": "uint256",
          "name": "orderId",
          "type": "uint256"
        },
        {
          "indexed": false,
          "internalType": "uint256",
          "name": "timestamp",
          "type": "uint256"
        }
      ],
      "name": "OrderFulfilled",
      "type": "event"
    },
    {
      "anonymous": false,
      "inputs": [
        {
          "indexed": true,
          "internalType": "uint256",
          "name": "orderId",
          "type": "uint256"
        },
        {
          "indexed": false,
          "internalType": "uint256",
          "name": "amount",
          "type": "uint256"
        },
        {
          "indexed": false,
          "internalType": "uint256",
          "name": "timestamp",
          "type": "uint256"
        }
      ],
      "name": "OrderRefunded",
      "type": "event"
    },
    {
      "anonymous": false,
      "inputs": [
        {
          "indexed": true,
          "internalType": "uint256",
          "name": "orderId",
          "type": "uint256"
        },
        {
          "indexed": true,
          "internalType": "address",
          "name": "buyer",
          "type": "address"
        },
        {
          "indexed": false,
          "internalType": "bytes32",
          "name": "accountHash",
          "type": "bytes32"
        },
        {
          "indexed": false,
          "internalType": "string",
          "name": "serviceType",
          "type": "string"
        },
        {
          "indexed": false,
          "internalType": "string",
          "name": "provider",
          "type": "string"
        },
        {
          "indexed": false,
          "internalType": "string",
          "name": "productCode",
          "type": "string"
        },
        {
          "indexed": false,
          "internalType": "uint256",
          "name": "amount",
          "type": "uint256"
        },
        {
          "indexed": false,
          "internalType": "uint256",
          "name": "timestamp",
          "type": "uint256"
        }
      ],
      "name": "PaymentReceived",
      "type": "event"
    },
    {
      "inputs": [
        {
          "internalType": "uint256",
          "name": "orderId",
          "type": "uint256"
        }
      ],
      "name": "claimRefund",
      "outputs": [],
      "stateMutability": "nonpayable",
      "type": "function"
    },
    {
      "inputs": [
        {
          "internalType": "uint256",
          "name": "orderId",
          "type": "uint256"
        }
      ],
      "name": "getOrder",
      "outputs": [
        {
          "components": [
            {
              "internalType": "address",
              "name": "buyer",
              "type": "address"
            },
            {
              "internalType": "bytes32",
              "name": "accountHash",
              "type": "bytes32"
            },
            {
              "internalType": "string",
              "name": "serviceType",
              "type": "string"
            },
            {
              "internalType": "string",
              "name": "provider",
              "type": "string"
            },
            {
              "internalType": "string",
              "name": "productCode",
              "type": "string"
            },
            {
              "internalType": "uint256",
              "name": "amount",
              "type": "uint256"
            },
            {
              "internalType": "uint256",
              "name": "timestamp",
              "type": "uint256"
            },
            {
              "internalType": "enum UtilityGateway.Status",
              "name": "status",
              "type": "uint8"
            }
          ],
          "internalType": "struct UtilityGateway.Order",
          "name": "",
          "type": "tuple"
        }
      ],
      "stateMutability": "view",
      "type": "function"
    },
    {
      "inputs": [
        {
          "internalType": "address",
          "name": "buyer",
          "type": "address"
        }
      ],
      "name": "getOrdersByBuyer",
      "outputs": [
        {
          "internalType": "uint256[]",
          "name": "",
          "type": "uint256[]"
        }
      ],
      "stateMutability": "view",
      "type": "function"
    },
    {
      "inputs": [
        {
          "internalType": "uint256",
          "name": "orderId",
          "type": "uint256"
        },
        {
          "internalType": "string",
          "name": "reason",
          "type": "string"
        }
      ],
      "name": "markFailed",
      "outputs": [],
      "stateMutability": "nonpayable",
      "type": "function"
    },
    {
      "inputs": [
        {
          "internalType": "uint256",
          "name": "orderId",
          "type": "uint256"
        }
      ],
      "name": "markFulfilled",
      "outputs": [],
      "stateMutability": "nonpayable",
      "type": "function"
    },
    {
      "inputs": [],
      "name": "nextOrderId",
      "outputs": [
        {
          "internalType": "uint256",
          "name": "",
          "type": "uint256"
        }
      ],
      "stateMutability": "view",
      "type": "function"
    },
    {
      "inputs": [],
      "name": "operator",
      "outputs": [
        {
          "internalType": "address",
          "name": "",
          "type": "address"
        }
      ],
      "stateMutability": "view",
      "type": "function"
    },
    {
      "inputs": [
        {
          "internalType": "uint256",
          "name": "",
          "type": "uint256"
        }
      ],
      "name": "orders",
      "outputs": [
        {
          "internalType": "address",
          "name": "buyer",
          "type": "address"
        },
        {
          "internalType": "bytes32",
          "name": "accountHash",
          "type": "bytes32"
        },
        {
          "internalType": "string",
          "name": "serviceType",
          "type": "string"
        },
        {
          "internalType": "string",
          "name": "provider",
          "type": "string"
        },
        {
          "internalType": "string",
          "name": "productCode",
          "type": "string"
        },
        {
          "internalType": "uint256",
          "name": "amount",
          "type": "uint256"
        },
        {
          "internalType": "uint256",
          "name": "timestamp",
          "type": "uint256"
        },
        {
          "internalType": "enum UtilityGateway.Status",
          "name": "status",
          "type": "uint8"
        }
      ],
      "stateMutability": "view",
      "type": "function"
    },
    {
      "inputs": [
        {
          "internalType": "address",
          "name": "",
          "type": "address"
        },
        {
          "internalType": "uint256",
          "name": "",
          "type": "uint256"
        }
      ],
      "name": "ordersByBuyer",
      "outputs": [
        {
          "internalType": "uint256",
          "name": "",
          "type": "uint256"
        }
      ],
      "stateMutability": "view",
      "type": "function"
    },
    {
      "inputs": [],
      "name": "owner",
      "outputs": [
        {
          "internalType": "address",
          "name": "",
          "type": "address"
        }
      ],
      "stateMutability": "view",
      "type": "function"
    },
    {
      "inputs": [
        {
          "internalType": "bytes32",
          "name": "accountHash",
          "type": "bytes32"
        },
        {
          "internalType": "string",
          "name": "serviceType",
          "type": "string"
        },
        {
          "internalType": "string",
          "name": "provider",
          "type": "string"
        },
        {
          "internalType": "string",
          "name": "productCode",
          "type": "string"
        }
      ],
      "name": "purchaseService",
      "outputs": [
        {
          "internalType": "uint256",
          "name": "orderId",
          "type": "uint256"
        }
      ],
      "stateMutability": "payable",
      "type": "function"
    },
    {
      "inputs": [
        {
          "internalType": "address",
          "name": "_operator",
          "type": "address"
        }
      ],
      "name": "setOperator",
      "outputs": [],
      "stateMutability": "nonpayable",
      "type": "function"
    },
    {
      "inputs": [],
      "name": "totalOrders",
      "outputs": [
        {
          "internalType": "uint256",
          "name": "",
          "type": "uint256"
        }
      ],
      "stateMutability": "view",
      "type": "function"
    },
    {
      "inputs": [],
      "name": "withdraw",
      "outputs": [],
      "stateMutability": "nonpayable",
      "type": "function"
    },
    {
      "inputs": [],
      "name": "withdrawableBalance",
      "outputs": [
        {
          "internalType": "uint256",
          "name": "",
          "type": "uint256"
        }
      ],
      "stateMutability": "view",
      "type": "function"
    }
  ],
  "bytecode": "0x6080604052600160025534801561001557600080fd5b5060405161192c38038061192c833981016040819052610034916100c1565b6001600160a01b03811661008e5760405162461bcd60e51b815260206004820152601d60248201527f5574696c697479476174657761793a207a65726f206f70657261746f72000000604482015260640160405180910390fd5b60008054336001600160a01b031991821617909155600180549091166001600160a01b03929092169190911790556100f1565b6000602082840312156100d357600080fd5b81516001600160a01b03811681146100ea57600080fd5b9392505050565b61182c806101006000396000f3fe6080604052600436106100e85760003560e01c8063570ca7351161008a578063b3ab15fb11610059578063b3ab15fb1461027b578063d09ef2411461029b578063dec7096c146102c8578063e62d64f6146102db57600080fd5b8063570ca735146101cf5780635b7baf64146102075780638da5cb5b14610227578063a85c38ef1461024757600080fd5b8063319fa887116100c6578063319fa8871461014d5780633940fda41461016d5780633a875a431461018d5780633ccfd60b146101ba57600080fd5b80631d834409146100ed5780632639f481146101155780632a58b33014610137575b600080fd5b3480156100f957600080fd5b506101026102f1565b6040519081526020015b60405180910390f35b34801561012157600080fd5b506101356101303660046111e9565b610307565b005b34801561014357600080fd5b5061010260025481565b34801561015957600080fd5b5061010261016836600461121e565b610497565b34801561017957600080fd5b50610135610188366004611291565b6104c8565b34801561019957600080fd5b506101ad6101a83660046112dd565b610642565b60405161010c91906112ff565b3480156101c657600080fd5b506101356106ae565b3480156101db57600080fd5b506001546101ef906001600160a01b031681565b6040516001600160a01b03909116815260200161010c565b34801561021357600080fd5b506101356102223660046111e9565b61081d565b34801561023357600080fd5b506000546101ef906001600160a01b031681565b34801561025357600080fd5b506102676102623660046111e9565b6109de565b60405161010c9897969594939291906113c1565b34801561028757600080fd5b506101356102963660046112dd565b610bc6565b3480156102a757600080fd5b506102bb6102b63660046111e9565b610cce565b60405161010c919061143e565b6101026102d63660046114ee565b610f13565b3480156102e757600080fd5b5061010260035481565b6000600160025461030291906115a8565b905090565b6001546001600160a01b031633146103665760405162461bcd60e51b815260206004820152601c60248201527f5574696c697479476174657761793a206e6f74206f70657261746f720000000060448201526064015b60405180910390fd5b600081815260046020526040902080546001600160a01b03166103cb5760405162461bcd60e51b815260206004820152601d60248201527f5574696c697479476174657761793a20756e6b6e6f776e206f72646572000000604482015260640161035d565b6000600782015460ff1660038111156103e6576103e6611389565b146104335760405162461bcd60e51b815260206004820152601b60248201527f5574696c697479476174657761793a206e6f742070656e64696e670000000000604482015260640161035d565b60078101805460ff191660011790556005810154600380546000906104599084906115c1565b909155505060405142815282907feb3b41be12efa25c0c65725eeff2e2ad0250e2e5de2aa939e18f36aa656e98809060200160405180910390a25050565b600560205281600052604060002081815481106104b357600080fd5b90600052602060002001600091509150505481565b6001546001600160a01b031633146105225760405162461bcd60e51b815260206004820152601c60248201527f5574696c697479476174657761793a206e6f74206f70657261746f7200000000604482015260640161035d565b600083815260046020526040902080546001600160a01b03166105875760405162461bcd60e51b815260206004820152601d60248201527f5574696c697479476174657761793a20756e6b6e6f776e206f72646572000000604482015260640161035d565b6000600782015460ff1660038111156105a2576105a2611389565b146105ef5760405162461bcd60e51b815260206004820152601b60248201527f5574696c697479476174657761793a206e6f742070656e64696e670000000000604482015260640161035d565b60078101805460ff1916600217905560405184907f228bfa439336064a9a44336831c7593c0f8edf9a114936ebec6c503e3267dc5490610634908690869042906115fd565b60405180910390a250505050565b6001600160a01b0381166000908152600560209081526040918290208054835181840281018401909452808452606093928301828280156106a257602002820191906000526020600020905b81548152602001906001019080831161068e575b50505050509050919050565b6000546001600160a01b031633146107045760405162461bcd60e51b81526020600482015260196024820152782aba34b634ba3ca3b0ba32bbb0bc9d103737ba1037bbb732b960391b604482015260640161035d565b600354806107605760405162461bcd60e51b815260206004820152602360248201527f5574696c697479476174657761793a206e6f7468696e6720746f20776974686460448201526272617760e81b606482015260840161035d565b6000600381905580546040516001600160a01b039091169083908381818185875af1925050503d80600081146107b2576040519150601f19603f3d011682016040523d82523d6000602084013e6107b7565b606091505b50509050806108195760405162461bcd60e51b815260206004820152602860248201527f5574696c697479476174657761793a207769746864726177207472616e7366656044820152671c8819985a5b195960c21b606482015260840161035d565b5050565b600081815260046020526040902080546001600160a01b031633146108845760405162461bcd60e51b815260206004820152601e60248201527f5574696c697479476174657761793a206e6f7420796f7572206f726465720000604482015260640161035d565b6002600782015460ff16600381111561089f5761089f611389565b146108ec5760405162461bcd60e51b815260206004820152601e60248201527f5574696c697479476174657761793a206e6f7420726566756e6461626c650000604482015260640161035d565b60078101805460ff191660031790556005810154604051600090339083908381818185875af1925050503d8060008114610942576040519150601f19603f3d011682016040523d82523d6000602084013e610947565b606091505b50509050806109a75760405162461bcd60e51b815260206004820152602660248201527f5574696c697479476174657761793a20726566756e64207472616e736665722060448201526519985a5b195960d21b606482015260840161035d565b6040805183815242602082015285917f3f41047bbce0ba78cad68e10c5201544e9cac7667f2bb1980b05b2d4da8824ab9101610634565b6004602052600090815260409020805460018201546002830180546001600160a01b03909316939192610a1090611621565b80601f0160208091040260200160405190810160405280929190818152602001828054610a3c90611621565b8015610a895780601f10610a5e57610100808354040283529160200191610a89565b820191906000526020600020905b815481529060010190602001808311610a6c57829003601f168201915b505050505090806003018054610a9e90611621565b80601f0160208091040260200160405190810160405280929190818152602001828054610aca90611621565b8015610b175780601f10610aec57610100808354040283529160200191610b17565b820191906000526020600020905b815481529060010190602001808311610afa57829003601f168201915b505050505090806004018054610b2c90611621565b80601f0160208091040260200160405190810160405280929190818152602001828054610b5890611621565b8015610ba55780601f10610b7a57610100808354040283529160200191610ba5565b820191906000526020600020905b815481529060010190602001808311610b8857829003601f168201915b50505050600583015460068401546007909401549293909290915060ff1688565b6000546001600160a01b03163314610c1c5760405162461bcd60e51b81526020600482015260196024820152782aba34b634ba3ca3b0ba32bbb0bc9d103737ba1037bbb732b960391b604482015260640161035d565b6001600160a01b038116610c725760405162461bcd60e51b815260206004820152601d60248201527f5574696c697479476174657761793a207a65726f206f70657261746f72000000604482015260640161035d565b6001546040516001600160a01b038084169216907ffbe5b6cbafb274f445d7fed869dc77a838d8243a22c460de156560e8857cad0390600090a3600180546001600160a01b0319166001600160a01b0392909216919091179055565b610cd6611188565b60008281526004602090815260409182902082516101008101845281546001600160a01b031681526001820154928101929092526002810180549293919291840191610d2190611621565b80601f0160208091040260200160405190810160405280929190818152602001828054610d4d90611621565b8015610d9a5780601f10610d6f57610100808354040283529160200191610d9a565b820191906000526020600020905b815481529060010190602001808311610d7d57829003601f168201915b50505050508152602001600382018054610db390611621565b80601f0160208091040260200160405190810160405280929190818152602001828054610ddf90611621565b8015610e2c5780601f10610e0157610100808354040283529160200191610e2c565b820191906000526020600020905b815481529060010190602001808311610e0f57829003601f168201915b50505050508152602001600482018054610e4590611621565b80601f0160208091040260200160405190810160405280929190818152602001828054610e7190611621565b8015610ebe5780601f10610e9357610100808354040283529160200191610ebe565b820191906000526020600020905b815481529060010190602001808311610ea157829003601f168201915b50505091835250506005820154602082015260068201546040820152600782015460609091019060ff166003811115610ef957610ef9611389565b6003811115610f0a57610f0a611389565b90525092915050565b6000803411610f645760405162461bcd60e51b815260206004820152601b60248201527f5574696c697479476174657761793a206e6f204d4f4e2073656e740000000000604482015260640161035d565b60028054906000610f748361165b565b919050559050604051806101000160405280336001600160a01b0316815260200189815260200188888080601f016020809104026020016040519081016040528093929190818152602001838380828437600092019190915250505090825250604080516020601f890181900481028201810190925287815291810191908890889081908401838280828437600092019190915250505090825250604080516020601f8701819004810282018101909252858152918101919086908690819084018382808284376000920182905250938552505034602084015250426040830152606090910152600082815260046020908152604091829020835181546001600160a01b0319166001600160a01b039091161781559083015160018201559082015160028201906110a590826116db565b50606082015160038201906110ba90826116db565b50608082015160048201906110cf90826116db565b5060a0820151600582015560c0820151600682015560e082015160078201805460ff1916600183600381111561110757611107611389565b021790555050336000818152600560209081526040808320805460018101825590845291909220018490555190915082907f29d0e9c0f6382c5e5dd051b474583912466517a52229c546a240e79102f036af90611175908c908c908c908c908c908c908c903490429061179b565b60405180910390a3979650505050505050565b60405180610100016040528060006001600160a01b03168152602001600080191681526020016060815260200160608152602001606081526020016000815260200160008152602001600060038111156111e4576111e4611389565b905290565b6000602082840312156111fb57600080fd5b5035919050565b80356001600160a01b038116811461121957600080fd5b919050565b6000806040838503121561123157600080fd5b61123a83611202565b946020939093013593505050565b60008083601f84011261125a57600080fd5b50813567ffffffffffffffff81111561127257600080fd5b60208301915083602082850101111561128a57600080fd5b9250929050565b6000806000604084860312156112a657600080fd5b83359250602084013567ffffffffffffffff8111156112c457600080fd5b6112d086828701611248565b9497909650939450505050565b6000602082840312156112ef57600080fd5b6112f882611202565b9392505050565b6020808252825182820181905260009190848201906040850190845b818110156113375783518352928401929184019160010161131b565b50909695505050505050565b6000815180845260005b818110156113695760208185018101518683018201520161134d565b506000602082860101526020601f19601f83011685010191505092915050565b634e487b7160e01b600052602160045260246000fd5b600481106113bd57634e487b7160e01b600052602160045260246000fd5b9052565b6001600160a01b038916815260208101889052610100604082018190526000906113ed8382018a611343565b905082810360608401526114018189611343565b905082810360808401526114158188611343565b9150508460a08301528360c083015261143160e083018461139f565b9998505050505050505050565b602081526114586020820183516001600160a01b03169052565b6020820151604082015260006040830151610100806060850152611480610120850183611343565b91506060850151601f198086850301608087015261149e8483611343565b935060808701519150808685030160a0870152506114bc8382611343565b92505060a085015160c085015260c085015160e085015260e08501516114e48286018261139f565b5090949350505050565b60008060008060008060006080888a03121561150957600080fd5b87359650602088013567ffffffffffffffff8082111561152857600080fd5b6115348b838c01611248565b909850965060408a013591508082111561154d57600080fd5b6115598b838c01611248565b909650945060608a013591508082111561157257600080fd5b5061157f8a828b01611248565b989b979a50959850939692959293505050565b634e487b7160e01b600052601160045260246000fd5b818103818111156115bb576115bb611592565b92915050565b808201808211156115bb576115bb611592565b81835281816020850137506000828201602090810191909152601f909101601f19169091010190565b6040815260006116116040830185876115d4565b9050826020830152949350505050565b600181811c9082168061163557607f821691505b60208210810361165557634e487b7160e01b600052602260045260246000fd5b50919050565b60006001820161166d5761166d611592565b5060010190565b634e487b7160e01b600052604160045260246000fd5b601f8211156116d6576000816000526020600020601f850160051c810160208610156116b35750805b601f850160051c820191505b818110156116d2578281556001016116bf565b5050505b505050565b815167ffffffffffffffff8111156116f5576116f5611674565b611709816117038454611621565b8461168a565b602080601f83116001811461173e57600084156117265750858301515b600019600386901b1c1916600185901b1785556116d2565b600085815260208120601f198616915b8281101561176d5788860151825594840194600190910190840161174e565b508582101561178b5787850151600019600388901b60f8161c191681555b5050505050600190811b01905550565b89815260c0602082015260006117b560c083018a8c6115d4565b82810360408401526117c881898b6115d4565b905082810360608401526117dd8187896115d4565b6080840195909552505060a0015297965050505050505056fea26469706673582212203212f56dea5fdec87224ff1d49475d35f1dd1ee5143e19b4fa12e332c208ae9f64736f6c63430008180033",
  "linkReferences": {},
  "deployedLinkReferences": {}
}